:03000000020800F3
:0C080000787FE4F6D8FD758112020847ED
:0C0927000A083F065B4F666D7D077F6F7E
:080934007F027EEFDEFEDFFC16
:01093C002298
:10091300AD07AC06ED1DAE0470011C4E6005120957
:040923003480F12209
:10088C00EE7050EFB40800504A90089CF82828737A
:10089C000208B40208B80208BC0208C00208C4026C
:1008AC0008CB0208D20208D9C2A4800EC2A48011BF
:1008BC00C2A48014C2A48017D2A4C2A3C2A222D202
:1008CC00A4C2A3D2A222D2A4D2A3C2A222D2A4D2C4
:0408DC00A3D2A222DF
:1008FE0012088C74082DF8E6F5807F017E0012092F
:05090E0013E4F5802256
:1008E000E4F512E4FAFBAF03AE02EB2402FD1208BA
:0E08F000FE0BBB00010AEB64084A70EA80E5CB
:10080C000208E0E493A3F8E493A34003F68001F21A
:10081C0008DFF48029E493A3F85407240CC8C333ED
:10082C00C4540F4420C8834004F456800146F6DFBC
:10083C00E4800B0102040810204080900927E47E1C
:10084C00019360BCA3FF543F30E509541FFEE493B1
:10085C00A360010ECF54C025E060A840B8E493A378
:10086C00FAE493A3F8E493A3C8C582C8CAC583CAA3
:10087C00F0A3C8C582C8CAC583CADFE9DEE780BE5B
:0109330000C3
:00000001FF
